:02000004080AE8
:1000000000000A0834190A0800000400060005016F
:0800100004020F0000000000D3
:1000180014160A0809480A4908B5884205D0094A49
:10002800824202D0121A01F017FA0748074A002143
:10003800121A01F01CFA064808BD00BF0003002090
:1000480094180A087803002078030020E4050020AB
:10005800E405002070B501F003F8074B074C1E4675
:10006800E41AA4080025A54204D056F8253098477C
:100078000135F8E770BD00BF30180A0888180A086B
:1000880000F00CB908B500F05FF9BDE8084000F0D1
:10009800D1BF00F0E1BA0078B0FA80F040097047AB
:1000A80001230370704700002DE9F04104469CB01D
:1000B800072321460022684600F0F0FD00F060FFAB
:1000C800009900F052FC0822214604A800F00EFE18
:1000D80000F056FF049900F048FC642000F0CCFAC8
:1000E80000F0F2FE6549044618A800F01BFD6946B9
:1000F80018A800F08AFD0346614F1968204600F0F1
:1001080034FC604E18A800F0CBFC5F4D3888002105
:1001180000F0F7FF5D4C3088002100F0F2FF2888DE
:10012800002100F0EEFF2088002100F0EAFF032301
:1001380008A804A9002200F0B1FD04220CA804A913
:1001480000F0D4FD002108A800F0A6FD014610A883
:1001580000F026FD00210CA800F09EFD014614A821
:1001680000F01EFD10A84A4900F05CFD88B108A9FE
:10017800012218A800F0BAFD18A800F0E9FD804691
:1001880018A800F08DFC08EB8801388889B200F0C7
:10019800B8FF10A83F4900F045FD88B108A9012221
:1001A80018A800F0A3FD18A800F0D2FD804618A8F2
:1001B80000F076FC08EB8801308889B200F0A1FFD6
:1001C80010A8354900F02EFD38B13888002100F01C
:1001D80098FF3088002100F094FF14A82C4900F003
:1001E80021FD88B10CA9012218A800F07FFD18A8EC
:1001F80000F0AEFD064618A800F052FC06EB86019A
:10020800288889B200F07DFF14A8224900F00AFD71
:1002180088B10CA9012218A800F068FD18A800F000
:1002280097FD064618A800F03BFC06EB86012088DF
:1002380089B200F066FF14A8174900F0F3FC38B142
:100248002888002100F05DFF2088002100F059FF78
:1002580014A800F025FC10A800F022FC0CA800F05F
:100268001FFC08A800F01CFC04A800F019FC684654
:1002780000F016FC01201CB0BDE8F08128160A0821
:10028800040300207C030020000300200803002052
:100298002E160A0830160A0833160A0808B500F0A0
:1002A80013FE4FF4165100F009FE00F069FE4FF4FA
:1002B800165100F061FE0D4B0121188800F010FF67
:1002C8000B4B0121188800F00BFF0A4B01211888FD
:1002D80000F006FF084B0121188800F001FFBDE877
:1002E800084006480649074A00F010BA04030020EF
:1002F8007C0300200003002008030020E9060A0808
:10030800B1000A0835160A0830B5044685B00D490B
:10031800684600F007FC2046694600F0ABFC05463D
:10032800684600F0BDFB55B168462146052200F03D
:10033800DDFC6846FFF7B8FE684600F0B1FB05B083
:1003480030BD00BF35160A081FB500F019FE036856
:100358001B69984760B1032000F08EF900F010FE89
:1003680003685B699847C1B20F4800F041FCECE7AD
:100378000D4C204600F0C1FCA36893B121466846A5
:1003880000F0F2FB6846FFF7BFFF684600F088FB05
:1003980000F0F6FD216800F0E8FA2046034900F075
:1003A800EEFB04B010BD00BF8C0300202D160A0818
:1003B8000E4B00220E4910B51A7001230B700D491F
:1003C8000D4C0A700D4A13700D4B02221A7000F082
:1003D80031F80C4B0C491860204600F0A3FB20466E
:1003E800BDE8104009490A4A00F050BF83030020C5
:1003F80088030020810300208C0300208203002052
:1004080080030020840300202D160A08A90A0A0880
:100418007803002008B5024B1B685B68019308BD90
:100428009C01060808B5024B1B685B69019308BD6F
:100438009C01060808B5024B1B681B68019308BDA0
:10044800B001060808B5024B1B685B68019308BD3C
:10045800B001060808B5024B1B689B68019308BDEC
:10046800B001060808B5024B1B68DB68019308BD9C
:10047800B001060808B5024B1B689B6A019308BDCA
:10048800B001060808B5024B1B685B6B019308BDF9
:10049800B001060808B5024B1B681B6E019308BD26
:1004A800AC01060808B5024B1B685B6E019308BDDA
:1004B800AC01060808B5024B1B689B6E019308BD8A
:1004C800AC01060808B5024B1B68DB6E019308BD3A
:1004D800AC01060808B5024B1B681B6F019308BDE9
:1004E800AC01060808B5024B1B685B6F019308BD99
:1004F800AC01060808B5034B1B68D3F8803001939C
:1005080008BD0000AC01060808B5024B1B68DB6992
:10051800019308BDB401060808B5024B1B681B6AA5
:10052800019308BDB401060808B5024B1B681B6897
:10053800019308BDC401060808B5024B1B685B6837
:10054800019308BDC401060808B5024B1B689B68E7
:10055800019308BDC401060808B5024B1B68DB6897
:10056800019308BDC401060808B5024B1B689B69C6
:10057800019308BDC401060808B5024B1B685B6AF5
:10058800019308BDC401060808B5024B1B689B6AA5
:10059800019308BDC401060808B5024B1B68DB6A55
:1005A800019308BDC401060808B5024B1B681B6B04
:1005B800019308BDC401060808B5024B1B685B6BB4
:1005C800019308BDC401060808B5024B1B689B6B64
:1005D800019308BDC401060808B5024B1B681B6CD3
:1005E800019308BDC401060808B5024B1B685B6C83
:1005F800019308BDC401060808B5024B1B689B6C33
:10060800019308BDC401060808B5024B1B68DB6CE2
:10061800019308BDC401060808B5024B1B685B6856
:10062800019308BDA401060808B5024B1B685B6965
:10063800019308BDA401060808B5024B1B685B6856
:10064800019308BDCC01060808B5024B1B681B695D
:10065800019308BDC801060808B5024B1B685B6812
:10066800019308BDA001060808B5024B1B689B68EA
:10067800019308BDA00106080021FFF7D5BF0000BF
:10068800064B002206491A7001230B7005490A70AF
:10069800054A1370054B02221A7070479F03002009
:1006A800A00300209D0300209E0300209C0300203F
:1006B800064B002206491A7001230B7005490A707F
:1006C800054A1370054B02221A707047A4030020D4
:1006D800A5030020A2030020A3030020A1030020FB
:1006E80010B588B00446684600F01CFA694604A8AC
:1006F80000F03AFA04A8A047044604A800F0D0F98C
:10070800684600F0CDF9204608B010BDF0B50746A0
:100718000E46154685B0102422466846002100F092
:10072800A6FE22466846002100F0A1FE0020694688
:100738000246ADF80040029703960195FFF77CFF4B
:1007480005B0F0BD064B002206491A7001230B7054
:1007580005490A70054A1370054B02221A70704742
:10076800A9030020AA030020A7030020A803002053
:10077800A6030020064B002206491A7001230B70BD
:1007880005490A70054A1370054B02221A70704712
:10079800AE030020AF030020AC030020AD0300200F
:1007A800AB0300207047F8B5064615460C468F186F
:1007B800BC4206D0336830469B6814F8011B984742
:1007C800F6E72846F8BD007C0022FFF763BE007CF0
:1007D8000021FFF767BE007C0021FFF76BBE007C9D
:1007E8000021FFF76FBE007C0021FFF773BE10B534
:1007F8000446FFF74EFC204610BD000010B5044625
:100808004FF47A728260054A0023436002600174E3
:1008180008461946FFF76EFE204610BD48160A081E
:10082800007C0021FFF75EBE064B002206491A70C5
:1008380001230B7005490A70054A1370054B022203
:100848001A707047B3030020B4030020B1030020DE
:10085800B2030020B0030020704710B50446FFF72C
:1008680018FC204610BDF8B50F4600F10806051D16
:10087800002416F8011D38460A2200F0ACF8AE42F2
:10088800044407D0002CF4D038462E2100F05EF83E
:100898000444EEE72046F8BD10B59DF8084044EA48
:1008A800032343EA024242EA0161042341600375DB
:1008B80010BD000037B50446044D05609DF818507A
:1008C8000095FFF7E9FF204603B030BD70160A080F
:1008D800064B002206491A7001230B7005490A705D
:1008E800054A1370054B02221A707047B80300209E
:1008F800B9030020B6030020B7030020B503002089
:10090800F8B506460D468F180024BD420CD0336852
:1009180030469B6815F8011B9847002801DB044402
:10092800F3E7002C08BF04462046F8BD70B505461D
:100938000C46084649B100F0B4FD2B680246214632
:100948002846BDE87040DB68184770BD03689B689F
:10095800184738B50D210546FFF7F8FF0A21044668
:100968002846FFF7F3FF204438BD38B50546FFF7A2
:10097800DDFF04462846FFF7ECFF204438BD012A76
:1009880098BF0A2230B50B468BB000218DF8241091
:100998000DF12304B3FBF2F505FB1233DBB2092B8F
:1009A80094BF30333733DBB2214604F801392B4684
:1009B800002DEFD1FFF7BAFF0BB030BD10B52AB943
:1009C800BDE810400368C9B29B681847D2B2BDE8B9
:1009D8001040FFF7D4BFFFF7F1BF0000064B00221D
:1009E80006491A7001230B7005490A70054A1370ED
:1009F800054B02221A707047BD030020BE03002079
:100A0800BB030020BC030020BA030020704710B5C8
:100A18000446FFF73EFB204610BD000010B5044613
:100A2800044B017103600846FFF76EFD0023A360C5
:100A3800204610BD88160A080079FFF76DBD000032
:100A4800064B002206491A7001230B7005490A70EB
:100A5800054A1370054B02221A707047C203002022
:100A6800C3030020C0030020C1030020BF030020EF
:100A7800064B002206491A7001230B7005490A70BB
:100A8800054A1370054B02221A707047C7030020ED
:100A9800C8030020C5030020C6030020C4030020AB
:100AA80010B504460068FFF7D7FD204610BD10B505
:100AB8000446006808B1FFF7CFFD00232360A36058
:100AC800636010BD38B504460D4600680131FFF774
:100AD800CBFD10B184E82100012038BD10B50368B2
:100AE800044613B143688B4207D22046FFF7EAFF5A
:100AF80020B1A3680BB922681370012010BD70B52E
:100B08000E46114604461546FFF7E8FF18B9204679
:100B1800FFF7CDFF04E0A5602068314600F0B9FC7E
:100B2800204670BD38B500230446036043608360E7
:100B380003730D4639B1084600F0B3FC2946024656
:100B48002046FFF7DCFF204638BD884210B50B462B
:100B5800044607D0096819B19A68FFF7D0FF01E089
:100B6800FFF7A5FF204610BD10B50446002303601B
:100B7800436083600373FFF7E8FF204610BD38B574
:100B880005460C4641B1084600F08BFC214602465A
:100B98002846FFF7B4FF01E0FFF789FF284638BD74
:100BA80013B5044600238DF8041003604360836086
:100BB800037301A98DF80530FFF7E1FF204602B065
:100BC80010BD70B5044683680E4609B9002070BD93
:100BD80062B1D5182946FFF781FF0028F6D02068B2
:100BE800A3683146184400F054FCA560012070BD8C
:100BF80007B500238DF80410012201A98DF80530EE
:100C0800FFF7DFFF03B05DF804FB0B4610B59A68E9
:100C180009680446FFF7D5FF10B92046FFF747FFDC
:100C2800204610BD08B582680B4612B919B90120D3
:100C380008BD11B90368187802E0006800F01FFCCD
:100C4800B0FA80F0400908BD10B5144683688A6878
:100C58009B1A9C420AD8006858B1096841B12044DF
:100C680000F027FCB0FA80F0400910BD002010BD4C
:100C7800084610BD82688B689A4202D30022FFF7AB
:100C8800E3BF002070478368994203D2006810B11F
:100C9800405C704700207047FFF7F5BF2DE9F04131
:100CA8001C469A4288BF13460E46154688BF2546FD
:100CB8000D4988BF1C460746FFF734FFB1688D42CF
:100CC8000FD88C4228BF0C463368002213F80480E2
:100CD8001A55316838462944FFF751FF336803F83D
:100CE80004803846BDE8F0812D160A0810B5044680
:100CF8008B68FFF7D3FF204610BD2DE9F041076848
:100D0800054617B3846804B3B8464646307808F1F8
:100D1800010800F097FB0028F7D1013C3C442078FB
:100D280000F090FB48B9621C921BBE42AA6008D929
:100D38003846314600F090FB03E0B442F3D3013C5F
:100D4800EDE72A68AB680021D1542846BDE8F08158
:100D5800006808B100F064BB70470000074B002032
:100D6800074A187001231370064A1070064A137058
:100D7800064B02221A70FFF74FBC00BFCC030020BD
:100D8800CD030020CA030020CB030020C9030020A4
:100D9800064B002206491A7001230B7005490A7098
:100DA800054A1370054B02221A707047D1030020C0
:100DB800D2030020CF030020D0030020CE03002060
:100DC800024B1A68024B1A60704700BF0C030020E0
:100DD800D4030020064B002206491A7001230B7029
:100DE80005490A70054A1370054B02221A707047AC
:100DF800DB030020DC030020D9030020DA030020F5
:100E0800D8030020064B002206491A7001230B70F4
:100E180005490A70054A1370054B02221A7070477B
:100E2800E0030020E1030020DE030020DF030020B0
:100E3800DD030020704741747047007CFFF7A4BBB6
:100E4800007CFFF7A1BB007CFFF7AEBB007CFFF77F
:100E5800A3BB007CFFF7B0BB10B50446FFF719F938
:100E6800204610BD70B5457C04460E4625B9007C69
:100E7800FFF7B2FB002805DD207C3146BDE8704055
:100E8800FFF77ABB284670BD10B5044600206060A5
:100E98004FF47A70A06006482174206001206074C5
:100EA800084611461A46FFF75FFB204610BD00BFF3
:100EB800C8160A08007C0023FFF7A6BB0022FFF72C
:100EC800F9BF007CFFF780BB38B50C4D296811F0DD
:100ED800010411D12846FFF7DEF868B12146084A17
:100EE800084B0948FFF7D0FF2846FFF7D9F806480E
:100EF8000649074A00F0CAF9034838BD7C040020B7
:100F080080040020F8030020E40300203D0E0A08B6
:100F1800780300200174704770470020FFF714BB66
:100F28000120FFF711BBFFF75FBB08B5FFF704FB14
:100F380008BD38B505460C46FFF756FB002801DC0E
:100F4800287C18B12046FFF707FB012038BDFFF7C2
:100F580053BB10B50446FFF79CF8204610BD0000AF
:100F6800002242604FF47A728260024A02600122D3
:100F780002747047F8160A080846FFF7D5BA000049
:100F880010B50A4C2368DB070ED42046FFF783F818
:100F980050B10748FFF7E4FF2046FFF781F80448FF
:100FA8000449054A00F072F9014810BD18050020EF
:100FB80004050020210F0A0878030020704700204C
:100FC80001460246FFF740BB0348044B0449054A63
:100FD800036000F05BB900BF1C05002028170A0851
:100FE800C50F0A087803002008B50F4B33B1FFF787
:100FF800C7FF03681B69984700280DDC0B4B33B10A
:10100800FFF762FF03681B699847002807DC084B55
:1010180043B1AFF3008008BDAFF30080EEE7AFF354
:101028000080F4E708BD00BF0000000000000000D9
:101038000000000008B5FFF7D7FFFFF7F3F9014BF1
:10104800186008BD280500200248034A0349121AFF
:1010580000F002BA004002400440024090180A081A
:1010680038B5094C094D23685A1B53425341084A65
:10107800137013B9FFF7E8FF2560064B1BB1FFF7A4
:10108800C9F9AFF3008038BD004002401E1C279A02
:10109800200500200000000010B504460F48FFF7A7
:1010A800CBFC28B1A4F10D03022B01D8002010BD00
:1010B80000F07CF8FFF7B4FB08B1012CF6D9FFF774
:1010C80003FFFFF7FEFE18B1A4F11203012BEDD9BF
:1010D800172C8CBF0020012010BD00BF6C0500201C
:1010E800172838B505460C460AD8FF2908D0FFF757
:1010F800D3FF28B128462146BDE83840FFF7AAB9F2
:1011080038BD38B504460D46FFF7C6FFE8B120469E
:101118000421FFF797F90428204604D12946BDE8A1
:101128003840FFF7A7B90221FFF78CF902280CD144
:101138002046FFF797F9012801D0042805D1204659
:10114800E9B2BDE83840FFF79DB938BD064B00222B
:1011580006491A7001230B7005490A70054A137075
:10116800054B02221A70704724050020250500202F
:10117800220500202305002021050020064B00221F
:1011880006491A7001230B7005490A70054A137045
:10119800054B02221A7070472F05002030050020E9
:1011A8002D0500202E0500202C05002038B50B4DFC
:1011B800296811F001040FD12846FEF76CFF58B1D9
:1011C80021460748FFF71AFB2846FEF769FF04483F
:1011D8000449054A00F05AF8014838BD3405002092
:1011E80038050020AD070A087803002013B5084C1D
:1011F800002100910A460B462046FFF75BFB20467C
:101208000449054A02B0BDE8104000F03FB800BFED
:101218004C05002061080A0878030020F8B5124B35
:1012280000211970114B01241C70114B114F1970BA
:10123800114B02221C70114B114E124D38461A7078
:10124800FFF7ECFB3846104F2A46314600F01EF8EF
:1012580021463846FFF7E2FB384631462A46BDE8C4
:10126800F84000F013B800BF6705002068050020AB
:10127800650500206C050020660500206405002037
:10128800150A0A0878030020780500200346084656
:10129800194600F0C9B80000244B1A68D0075CBF93
:1012A80001221A60224B1A68D1075CBF01221A601A
:1012B800204B1A68D2075CBF01221A601E4B1A68BD
:1012C800D0075CBF01221A601C4B1A68D1075CBFAB
:1012D80001221A601A4B1A68D2075CBF01221A60F1
:1012E800184B1A68D0075CBF01221A60164B1A689F
:1012F800D1075CBF01221A60144B1A68D2075CBF81
:1013080001221A60124B1A68D0075CBF01221A60CA
:10131800104B1A68D1075CBF01221A600E4B1A687D
:10132800D2075CBF01221A60704700BFB0050020D9
:10133800AC050020A8050020A4050020A005002079
:101348009C050020980500209405002090050020A9
:101358008C0500208805002084050020244B1A688D
:10136800D0075CBF01221A60224B1A68D1075CBF04
:1013780001221A60204B1A68D2075CBF01221A604A
:101388001E4B1A68D0075CBF01221A601C4B1A68F2
:10139800D1075CBF01221A601A4B1A68D2075CBFDA
:1013A80001221A60184B1A68D0075CBF01221A6024
:1013B800164B1A68D1075CBF01221A60144B1A68D1
:1013C800D2075CBF01221A60124B1A68D0075CBFB3
:1013D80001221A60104B1A68D1075CBF01221A60FB
:1013E8000E4B1A68D2075CBF01221A60704700BF13
:1013F800E0050020DC050020D8050020D4050020E9
:10140800D0050020CC050020C8050020C405002018
:10141800C0050020BC050020B8050020B405002048
:1014280000210A2200F0E4B838B5054604480C4605
:10143800134620B1022029462246AFF3008038BD6A
:1014480000000000034B1B681844407800F00800B7
:10145800704700BF1003002010B5431E0A44914294
:1014680004D011F8014B03F8014FF8E710BD03460B
:101478000244934202D003F8011BFAE7704710F8C0
:10148800012B11F8013B012A28BF9A42F7D0D01A44
:101498007047034611F8012B03F8012B002AF9D1F4
:1014A8007047034613F8012B002AFBD1181A01389C
:1014B800704770B5A2B1451E01396B7811F8014F1C
:1014C8006E1CA34206D16FF00104641B1444E04271
:1014D80002D11C46181B70BD3546002BEDD1F8E72C
:1014E800104670BD2DE9F0470F46404CD4F80090E7
:1014F8003D4615F801EB09EB0E04667806F0080482
:1015080004F0FF060CB12F46F2E774462D2C03D1E8
:10151800BD1C7C78012603E02B2C04BF7C78BD1C05
:1015280013B1102B0AD15AE0302C56D12C7804F084
:10153800DF04582C4CD16C7810230235002E14BFD0
:101548004FF000486FF00048B8FBF3FA0027BE469A
:1015580003FB1A8809EB040C9CF801C01CF0040F6B
:1015680001D0303C0BE01CF0030C1BD0BCF1010F88
:101578000CBF4FF0370C4FF0570CCCEB04049C42D7
:1015880010DAB7F1FF3F0AD0D64506D801D1444555
:1015980003DC03FB0E4E012701E04FF0FF3715F87F
:1015A800014BD7E77C1C73460AD1002E4FF022016D
:1015B80014BF4FF000436FF0004301602AB911E0F7
:1015C8000EB1CEF100036AB107B1691E116009E0DE
:1015D8003024002BB2D10823B0E70A23AEE7302C21
:1015E800ACD1A3E71846BDE8F08700BF1003002080
:1015F80030B505460C461346034A2946106822466C
:10160800BDE83040FFF76EBF740300201D000A08D4
:101618005D000A0889000A088D000A080000000019
:101628006D6F76652000310032003030006D6F76C6
:10163800650000000000000000000000000000003D
:10164800AD070A08F7070A08CF070A08AF070A080C
:10165800D7070A08DF070A08E7070A08EF070A0892
:1016680000000000000000006F080A0861080A086E
:1016780063080A08000000000000000000000000E5
:10168800150A0A08170A0A085A00252B3033643A43
:10169800253032750025592D256D2D256454254892
:1016A8003A254D3A2553257A0061736374696D654F
:1016B8000000000000000000000000000000000022
:1016C8003D0E0A08610E0A086D0E0A0809090A0883
:1016D800490E0A08550E0A084F0E0A085B0E0A083A
:1016E8003F0E0A08430E0A08000000000000000030
:1016F800210F0A085B0F0A083B0F0A0809090A08A4
:10170800330F0A08230F0A08290F0A08570F0A0877
:101718002F0F0A081D0F0A08000000000000000033
:10172800C70F0A0800202020202020202020282859
:101738002828282020202020202020202020202089
:1017480020202020208810101010101010101010C9
:1017580010101010100404040404040404040410F9
:101768001010101010104141414141410101010187
:101778000101010101010101010101010101010151
:10178800101010101010424242424242020202025D
:101798000202020202020202020202020202020221
:1017A80010101010200000000000000000000000D1
:1017B8000000000000000000000000000000000021
:1017C8000000000000000000000000000000000011
:1017D8000000000000000000000000000000000001
:1017E80000000000000000000000000000000000F1
:1017F80000000000000000000000000000000000E1
:1018080000000000000000000000000000000000D0
:1018180000000000000000000000000000000000C0
:101828000000000000430000B9030A0889060A08FE
:10183800B9060A084D070A087D070A0831080A0888
:10184800D9080A08E5090A08490A0A08790A0A08A3
:10185800650D0A08990D0A08C90D0A08DD0D0A0860
:101868000D0E0A08D10F0A0855110A0885110A0831
:10187800F5110A0825120A08A1120A0865130A08B0
:08188800000000000000000058
:041890000000000054
:10189400020000000100000003000000B1160A0865
:1018A4002C170A08000000000000000000000000DF
:1018B4000000000000000000000000000000000024
:1018C400000000002D180A080000000000000000BD
:1018D4000000000000000000000000000000000004
:1018E40000000000000000000000000000000000F4
:1018F40000000000000000000000000000000000E4
:081904000000000014030020A4
:10190C00FFFFFFFF00000102030405060708090A98
:10191C000B0C0D0E0F101112131415161718191A93
:08192C001B1C1D1E1F202800DA
:04193400785634129B
:04000005080A0018CD
:00000001FF
